:020000040000FA
:100000009842FF1FAD2900009B310000B729000076
:10001000B9290000BB290000BD2900000000000034
:10002000000000000000000000000000BF290000E8
:10003000C129000000000000C3290000C5290000FC
:100040003F3B0000553B00006B3B00009D3B000028
:10005000B33B0000C93B0000DF3B0000F53B000064
:100060000B3C0000213C0000373C00004D3C0000F0
:10007000633C0000793C00008F3C0000A53C000080
:10008000C7290000C7290000C7290000C7290000B0
:10009000C7290000C7290000975D0000C72900009C
:1000A000C7290000C7290000E963000009640000B7
:1000B00029640000C7290000C7290000C7290000E3
:1000C000C7290000C7290000C7290000C729000070
:1000D000C7290000C7290000C7290000C729000060
:1000E000C7290000C7290000C7290000C729000050
:1000F000C729000005590000C72900006959000000
:10010000C7290000CD590000C72900004B5A000044
:10011000C7290000AF5A0000C7290000135B000088
:10012000C7290000972F0000A72F0000C729000053
:10013000C7290000C72900007D490000E3490000ED
:10014000494A0000C7290000C7290000C72900004C
:10015000DD510000E7510000F1510000FB510000AB
:10016000C7290000C7290000C7290000C7290000CF
:10017000C7290000C7290000C7290000C7290000BF
:10018000C7290000AB36000011370000C729000066
:10019000C7290000C7290000C7290000E94F000057
:1001A0000F50000035500000032200009121000094
:1001B000C7290000C7290000C7290000C72900007F
:1001C000C7290000C7290000C7290000C72900006F
:1001D000C7290000C7290000C7290000C72900005F
:1001E000C7290000C7290000C7290000C72900004F
:10040000FFFFFFFFFFFFFFFFFFFFFFFFFEFFFFFFFD
:1004100000F002F800F0B0F80AA090E8000C824466
:100420008344AAF10107DA4501D100F0A5F8AFF243
:10043000090EBAE80F0013F0010F18BFFB1A43F0C2
:100440000103184768940000989400000A444FF094
:10045000000C10F8013B13F0070408BF10F8014B23
:100460001D1108BF10F8015B641E05D010F8016B68
:10047000641E01F8016BF9D113F0080F1EBF10F8CC
:10048000014BAD1C0C1B09D16D1E58BF01F801CBEF
:10049000FAD505E014F8016B01F8016B6D1EF9D572
:1004A0009142D6D370470000002300240025002687
:1004B000103A28BF78C1FBD8520728BF30C148BFC7
:1004C0000B6070476E2906F08386702906F0C184A0
:1004D000662908F01E86652908F01B86672908F042
:1004E0001886612908F0178603681B0A28BF41F0A7
:1004F0008001692906F03284642906F02F84752969
:1005000006F02C846F2906F06587782906F08D8423
:10051000E92906F0FF86E42906F0FC86F52906F0B5
:10052000F986EF2906F06287F82906F08C840368C3
:10053000DB0928BF41F08001632907F03B83732961
:1005400007F04083E32907F04B83F32907F050833A
:10055000002070471FB507F0A1FB04000020002118
:1005600008F090F8401C60600020002108F074F84A
:10057000E0601FBD10B510BD07F062FB1146FFF72C
:10058000E9FF00F009F807F03BFC03B4FFF7F2FFC6
:1005900003BC07F083FC000000F088FD01F08CFE36
:1005A0000E49086001F0D0FE0D49086015E00B48C7
:1005B000006810B101280AD104E00948006801F080
:1005C000EBFA09E000F0B6F800F0C5F804E00448E2
:1005D000006801F0E1FA00BF00BFE8E70000FF1F7C
:1005E0000400FF1F002048490870401E474908606A
:1005F00047480078C0F10100454908705B2000F0D1
:100600001F02012191404209920002F1E022C2F84A
:10061000001100BF704700BF3B4800780228FBD1A3
:10062000704770B5FFF7DEFFFFF7F5FF002420E00D
:10063000002519E004EB8400364901EB8010405D91
:10064000FF2806D1FE2004EB8401324A02EB81111F
:10065000485504EB84002F4A02EB8010415D0420D2
:1006600004F0E9FD681C85B2B5F5A07FE2DB601CF3
:1006700084B2642CDCDBFF21042004F0DCFD70BDBF
:1006800010B5FFF7AFFFFFF7C6FF3AE0FFF7AAFF8D
:10069000FFF7C1FF00F0EEF81F480068012830D1D5
:1006A0001E4800680A2190FBF1F01D49085C1D49B5
:1006B0000968884212DD01201B491C4A126841F872
:1006C00022001A480068401C0A2190FBF1F201FB4D
:1006D00012001749002241F8202011E000211248A1
:1006E000124A126840F8221010480068401C0A2183
:1006F00090FBF1F201FB12000D49012241F820208C
:1007000000E0C3E700BF10BD4600FF1FA0D00440BB
:100710004700FF1F000000208400FF1F7400FF1F20
:100720000C01FF1F7800FF1FDC00FF1F0801FF1FE7
:10073000B400FF1F10B501F0BEFCFFF753FFFFF739
:100740006AFF0021084601F069FB05F0B4FE0120B4
:100750002B49088010BDFFF793FF50E00F210320C5
:1007600004F055FBFFF73EFF00F084F800F044FB77
:100770002448006818B900202349087017E023486E
:10078000006818B901202049087002E002201E49C3
:1007900008701F480068012802D103201A49087018
:1007A0001C480068012802D1042017490870164827
:1007B0000078052813D2DFE800F00306090C0F00CB
:1007C00001F00DFE0EE001F05CFE0BE001F0A7FE73
:1007D00008E001F046FF05E001F058FF02E001F0FB
:1007E000FEFD00BF00BF0C4801880C48008801F0E6
:1007F00001FC01F0AFFA01F0EAFEFFF70CFFADE7F4
:100800000A00FF1F8400FF1F6200FF1F8800FF1FF8
:100810008C00FF1F9000FF1F6E00FF1F6C00FF1F6A
:100820001249098829B90121104A11800021104A72
:10083000118000BF0E4909888142FBDB00210B4A71
:10084000118070470948008801280DD108480088A8
:10085000401C074908800846008840F6C4118842B9
:1008600002D1002002490880704700000A00FF1FE3
:100870000800FF1F2DE9FC5F4FF0000AD346002659
:10088000002593E000248DE0F6480078012844D14B
:1008900004EB8400F44901EB8010405DF3490988C2
:1008A00088427EDB012C7CDD632C7ADA012D78DD39
:1008B000B5F59F7F75DC04EB8400EB4901EB8010FC
:1008C000415D601E00EB8000E74A02EB8010405D56
:1008D0000144601C00EB800002EB8010405D01448D
:1008E00004EB840002EB8012681E105C014404EBF0
:1008F0008400DD4A02EB8012681C105C01EB0009E9
:10090000052099FBF0F01FFA80F9D848008881454E
:1009100047DB761CA244AB4443E004EB8400D4499B
:1009200001EB8010405DD1490988884239DB012CF8
:1009300037DD632C35DA012D33DDB5F59F7F30DCF3
:1009400004EB8400CA4901EB8010415D601E00EB9E
:100950008000C74A02EB8010405D0144601C00EB40
:10096000800002EB8010405D014404EB840002EB48
:100970008012681E105C014404EB8400BC4A02EB48
:100980008012681C105C01EB0009052099FBF0F057
:100990001FFA80F9B5480088814502DB761CA24425
:1009A000AB44641C642CFFF66FAF6D1CB5F5A07FE3
:1009B000FFF668AF052E5BDDBAFBF6F0AD490860C7
:1009C000BBFBF6F0AC4908600120AC490860002090
:1009D000AB490860A74800684C2803DA0120A94900
:1009E000086002E00020A7490860A748006878BBBB
:1009F000A04800680A2190FBF1F0A449085C9E49D8
:100A00000968884212DD0121A148A24A126840F813
:100A10002210A0480068401C0A2190FBF1F201FB63
:100A200012009D49002241F8202011E00020984941
:100A3000984A126841F8220096480068401C0A2132
:100A400090FBF1F201FB12009349012241F82020B2
:100A5000884800682B2803DA0120904908602DE0BF
:100A60008E480068012829D100208C49086025E0C3
:100A700083480068401C82490860084600680428D2
:100A80001CD18748006842280DDA82480068401C63
:100A900080490860084600680A2190FBF1F201FBDA
:100AA00012007C49086000207449086071490860A0
:100AB000714908607349086078490860794800689E
:100AC00001281CD178480088B0F57A7F12DD77487C
:100AD000038877A22021002006F0F1F872480388ED
:100AE00077A22E21002006F0EAF800206E49088047
:100AF0006E4908806D480088401C6C490880694830
:100B0000006802283AD133466FA22021002006F067
:100B1000D6F85A486FA220210368402006F0CFF88B
:100B200054486FA22E210368002006F0C8F85248EE
:100B30006DA22E210368402006F0C1F851486CA236
:100B40003C210368002006F0BAF854486BA23C210F
:100B50000368402006F0B3F86B480088A0F2263303
:100B60006AA24A21002006F0AAF86C480088A0F288
:100B700026336BA25821002006F0A1F849480068EE
:100B8000032822D13D48016869A006F0DBF83D4802
:100B900001686AA006F0D6F8404801686AA006F02D
:100BA000D1F8344801686BA006F0CCF832480168EF
:100BB0006BA006F0C7F8544801886CA006F0C2F894
:100BC000564801886DA006F0BDF836480068042834
:100BD00030D16E48B0F900306DA22021002006F01F
:100BE0006EF86F48B0F900306EA23021002006F098
:100BF00066F87148006808F075F870A2CDE9000148
:100C00004021002006F05BF86F48006808F06AF8A1
:100C10006EA2CDE900015021002006F050F86E4888
:100C2000006808F05FF86DA2CDE9000160210020A6
:100C300006F045F80F480068194908600E4800683A
:100C400069490860694806600C4800680E490860F8
:100C50000C480068664908601048006865490860EB
:100C6000BDE8FC9F4700FF1F000000207000FF1F31
:100C7000007D00207400FF1F7800FF1F8400FF1F0D
:100C80009400FF1F8800FF1FA000FF1F0C01FF1F23
:100C9000DC00FF1F0801FF1FB400FF1F8C00FF1FB7
:100CA0009800FF1F0400FF1F0800FF1F0C00FF1F1C
:100CB0006C6F6F705F636F756E743D3A25640000F2
:100CC00074743D3A25640000636F756E743D3A2577
:100CD000346400007461725F463D3A256400000090
:100CE000745F483D3A256400745F573D3A256400BF
:100CF0007475725F463D3A2564000000706173733D
:100D00005F463D3A256400006800FF1F616E675F23
:100D10007461723D3A253564000000006400FF1FD5
:100D2000616E675F6E6F773D3A25356400000000A5
:100D30005461726765745F463D2564005475726E38
:100D40005F463D2564000000506173735F463D259A
:100D5000640000007461726765745F483D2564003B
:100D60007461726765745F573D256400616E676CDE
:100D7000655F7461726765743D256400616E676CC0
:100D8000655F6E6F773D2564000000001000FF1F57
:100D90006C6566745F73706565643D3A2535640003
:100DA0001200FF1F7269676E745F73706565643D42
:100DB0003A253564000000002800FF1F70776D5F42
:100DC0004B703D3A253566002C00FF1F70776D5F34
:100DD0004B693D3A253566003000FF1F70776D5F27
:100DE0004B643D3A253566009C00FF1FB000FF1F95
:100DF000A400FF1FA800FF1F2DE9F04F87B04FF0A0
:100E00004B091E2000904FF4827A4FF03C0B4FF0BC
:100E10000008002004900390029001908649086029
:100E20008649086006908648007801285BD10098C2
:100E300084B214E01FFA8BF50DE02A462146814862
:100E400000F0F2F907460699C81906900498401C6C
:100E50000490681C85B25545EFDB601C84B24C459C
:100E6000E8DB04990698B0FBF1F0C0B20590059854
:100E70002D30C6B2712E00DDFF26009884B22FE01F
:100E80001FFA8BF528E004EB84006E4901EB80101B
:100E9000405DB0421EDD2A4621466A4800F0C4F992
:100EA0000746B74216DD0398401C0390A9F10F00D6
:100EB000A0420FDD0BF1280085420BDDAAF12800CE
:100EC000A84207DD08F10108029820440290019829
:100ED00028440190681C85B25545D4DB601C84B25F
:100EE0004C45CDDB5AE0009884B214E01FFA8BF534
:100EF0000DE02A462146544800F096F90746069927
:100F0000C81906900498401C0490681C85B2554589
:100F1000EFDB601C84B24C45E8DB04990698B0FB1B
:100F2000F1F0C0B2059005982D30C6B2712E00DDEB
:100F3000FF26009884B22FE01FFA8BF528E004EB1F
:100F40008400414901EB8010405DB0421EDD2A461D
:100F500021463D4800F068F90746B74216DD039880
:100F6000401C0390A9F10F00A0420FDD0BF12800F7
:100F700085420BDDAAF12800A84207DD08F101082F
:100F8000029820440290019828440190681C85B280
:100F90005545D4DB601C84B24C45CDDB0298B0FBD8
:100FA000F8F0254908600198B0FBF8F02349086083
:100FB000B8F1320F0ED90398B0F57A7F0AD22348E0
:100FC0000068522802DC2148006818B90120204935
:100FD000086002E000201E4908601E4800680528DD
:100FE00026D11DA220210020039B05F068FE434668
:100FF0001DA22021402005F062FE0F481EA22E21D6
:101000000368002005F05BFE0C481EA22E21036839
:10101000402005F054FE33461DA23E21002005F07D
:101020004EFE0B481DA250210368002005F047FE2C
:1010300007B0BDE8F08F00007C00FF1F8000FF1F9D
:101040004700FF1F00000020007D00207400FF1FEC
:101050009000FF1F0400FF1F626C6F5F636E743DA2
:101060003A253564000000006261725F636E743D72
:101070003A25356400000000625F483D3A2533643C
:1010800000000000625F573D3A2533640000000015
:10109000625F646F6F723D3A253464006261725F13
:1010A000666C61673D3A25640000000010B502F0EF
:1010B00064F804220F21032003F047FE04221A21C2
:1010C000104603F042FE4FF4E1314BF2E40004F02D
:1010D000CEFB04220721022003F037FE0422062162
:1010E000022003F032FE0122002149F6C11003F074
:1010F0002DF9012200214AF28A5003F027F9022239
:101100000021012003F021FE02220121084603F004
:101110001CFE02221146012003F017FE02220321C9
:10112000012003F012FE02220421012003F00DFE33
:1011300002220521012003F008FE022206210120DF
:1011400003F003FE02220721012003F0FEFD00212F
:10115000372001F035FF40F2263001F077FF42F2F0
:101160001072002144F2103003F00EFA42F21072B5
:101170000021274803F008FA42F2107200212548A6
:1011800003F002FA42F210720021234803F0FCF946
:1011900000221146104603F0ACF90022012110464E
:1011A00003F0A7F900220221104603F0A2F9002261
:1011B0000321104603F09DF944F62061002003F05E
:1011C0008FFF1649002003F0E9FF012200210846A5
:1011D00003F090FF4FF47A71012003F081FF104972
:1011E000012003F0DBFF01220021104603F082FF03
:1011F00044F62061022003F073FF0A49022003F045
:10120000CDFF01220021022003F074FF10BD000079
:10121000104508001047100010491800411C00003C
:1012200045080000A91E000030B5034601EB81040B
:1012300003EB8414A05C00293EDD63293CDA002A1C
:101240003ADDB2F59F7F37DC4C1E04EB840403EBE0
:101250008414A45C844205DA4C1E04EB840403EB82
:101260008414A05C4C1C04EB840403EB8414A45C85
:10127000844205DA4C1C04EB840403EB8414A05C68
:1012800001EB810403EB8415541E2C5D844205DAC6
:1012900001EB810403EB8415541E285D01EB8104EE
:1012A00003EB8415541C2C5D844205DA01EB8104A8
:1012B00003EB8415541C285D30BD8AB005F0FBF8A3
:1012C00000F0F9FEFFF78EF9FFF7A5F94B274FF075
:1012D0001E084FF482794FF03C0AC3E10F2103202E
:1012E00003F095FDFFF77EF9FFF795F9FB480078CD
:1012F00000287DD10490834603900290F84908604D
:10130000F84908600690002411E000250BE02A4609
:101310002146F548FFF788FF04EB8401F34A02EB0E
:10132000811148556D1CB5F5A07FF0DB641C642C61
:10133000EBDB444611E055460CE004EB8400EB493E
:1013400001EB8010415D0698084406900498401C0B
:1013500004906D1C4D45F0DB641CBC42EBDB049932
:101360000698B0FBF1F0C0B2059005982D30C6B2DA
:10137000712E00DDFF2644461EE0554619E004EBC1
:101380008400DA4901EB8010405DB04209DDFF20A6
:1013900004EB8401D54A02EB811148550BF1010B96
:1013A00006E0002004EB8401D04A02EB811148558D
:1013B0006D1C4D45E3DB641CBC42DEDB444627E08C
:1013C0000AF128051FE004EB8400C84901EB8010F6
:1013D000405DB0420FDDFF2004EB8401C34A02EB05
:1013E000811148550398204403900298284400E056
:1013F00013E0029006E07D2004EB8401BB4A02EB7F
:10140000811148556D1CA9F12800A842DBDC641C41
:10141000A7F10F00A042D3DC90E0002004908346A7
:1014200003900290AE490860AE490860069000241F
:1014300011E000250BE02A462146AC48FFF7F4FEF8
:1014400004EB8401A84A02EB811148556D1CB5F5E7
:10145000A07FF0DB641C642CEBDB444611E05546B6
:101460000CE004EB8400A04901EB8010415D06987C
:10147000084406900498401C04906D1C4D45F0DB18
:10148000641CBC42EBDB04990698B0FBF1F0C0B2DF
:10149000059005982D30C6B2712E00DDFF2644461A
:1014A0001EE0554619E004EB84008F4901EB8010E3
:1014B000405DB04209DDFF2004EB84018A4A02EB63
:1014C000811148550BF1010B06E0002004EB84016B
:1014D000854A02EB811148556D1C4D45E3DB641CC8
:1014E000BC42DEDB444625E00AF128051DE004EBA2
:1014F00084007D4901EB8010405DB0420DDDFF208E
:1015000004EB8401784A02EB81114855039820448A
:10151000039002982844029006E07D2004EB8401A9
:10152000714A02EB811148556D1CA9F12800A842AF
:10153000DDDC641CA7F10F00A042D5DC0398B0FBF2
:10154000FBF0674908600298B0FBFBF06549086052
:1015500000240BE0202506E0E9B2E0B24FF6FF726E
:1015600005F06EFA6D1C3C2DF6DB641C802CF1DB63
:101570005B485FA220210368002005F0A0FB5948CA
:101580005EA220210368402005F099FB33465EA24D
:101590003021002005F093FB5B465EA23021402005
:1015A00005F08DFB00254AE0002445E04B4800781B
:1015B000012819D104EB84004B4901EB8010405DF8
:1015C000C010C00204EB8401474A02EB8111495D5F
:1015D000891040EA411004EB840102EB8111495D5E
:1015E00040EAE100079018E004EB84003F4901EB7A
:1015F0008010405DC010C00204EB84013B4A02EB46
:101600008111495D891040EA411004EB840102EB2D
:101610008111495D40EAE1000790E8014FF4A071B3
:1016200090FBF1F0C0B2019004F13C00C1B2079A06
:10163000019805F005FA641C642CB7DB6D1CB5F548
:10164000A07FB1DB0898C0014FF4A07190FBF1F0CE
:10165000C0B2019009983C30C1B24FF47842019871
:1016600005F0EEF93AE608B504F025FF4FF0000961
:101670000024002000904946484600F0BBFCA246EA
:101680008AE06946042003F01BFE00287BD1BDF8E8
:101690000000232861D10F21032003F0B8FBBAF129
:1016A000060F57D2DFE80AF05603050B4452A14655
:1016B00050E0204607F0D8FB194908604AE0204670
:1016C00007F014F90746174A174B07F023F90546A8
:1016D00006F0EEFF154908603CE000004700FF1FE0
:1016E0007C00FF1F8000FF1F00000020007D002005
:1016F000625F483D3A25336400000000625F573D59
:101700003A25336400000000646F6F723D3A253360
:1017100064000000636E743D3A25356400000000EB
:101720002800FF1F7B14AE47E17A843F2C00FF1F87
:10173000204607F0DBF80546F84AF94B07F0EAF8CF
:10174000074606F0B5FFF749086003E00120F649B7
:10175000087000BF00BF002415E0BDF80000392864
:101760000BDCBDF80000302807DB04EB8400BDF87B
:10177000001001EB4000303884B2BDF800002A2888
:1017800001D1A24600244946484600F033FCE64811
:10179000007808B94FF0000973E71CB504F08BFE20
:1017A00000F089FCFEF71EFFFEF735FF3CE10F213C
:1017B000032003F02CFBFEF715FF0026B046B146D0
:1017C00000258FE0002489E0D8480078012842D124
:1017D00004EB8400D64901EB8010405DD5490988AF
:1017E00088427ADB012C78DD632C76DA012D74DDFA
:1017F000B5F59F7F71DC04EB8400CD4901EB8010CF
:10180000415D601E00EB8000C94A02EB8010405D24
:101810000144601C00EB800002EB8010405D01443D
:1018200004EB840002EB8012681E105C014404EBA0
:101830008400BF4A02EB8012681C105C0F18052060
:1018400097FBF0F087B2BB480088874245DB761CE7
:10185000A044A94441E004EB8400B74901EB8010A7
:10186000405DB4490988884237DB012C35DD632CA3
:1018700033DA012D31DDB5F59F7F2EDC04EB8400DA
:10188000AD4901EB8010415D601E00EB8000AA4A6B
:1018900002EB8010405D0144601C00EB800002EB15
:1018A0008010405D014404EB840002EB8012681E4E
:1018B000105C014404EB84009F4A02EB8012681C18
:1018C000105C0F18052097FBF0F087B2994800884C
:1018D000874202DB761CA044A944641C642CFFF6FA
:1018E00073AF6D1CB5F5A07FFFF66CAF98FBF6F0FB
:1018F0009249086099FBF6F0914908600198B0FBA5
:10190000FAF0904908600098B0FBFAF08E49086040
:1019100000240BE0202506E0E9B2E0B24FF6FF72AA
:1019200005F08EF86D1C3C2DF6DB641C802CF1DB81
:10193000824886A220210368002005F0C0F9804873
:1019400085A220210368402005F0B9F9854886A2C8
:1019500030210368002005F0B2F93346AFF24C2283
:101960003021402005F0ABF9002548E0002443E099
:101970006E480078012818D104EB84006C4901EB13
:101980008010405DC010C00204EB8401684A02EB85
:101990008111495D891040EA411004EB840102EB9A
:1019A0008111495D40EAE10717E004EB84006249D8
:1019B00001EB8010405DC010C00204EB84015E4A60
:1019C00002EB8111495D891040EA411004EB84016A
:1019D00002EB8111495D40EAE107E8014FF4A07193
:1019E00090FBF1F000F0FF0B04F13C00C1B23A466D
:1019F000584605F025F8641C642CB9DB6D1CB5F560
:101A0000A07FB3DB4FEAC9104FF4A07190FBF1F057
:101A100000F0FF0B08F13C00C1B24FF47842584689
:101A200005F00EF8FEF7F7FDC1E600F044FBFEF707
:101A3000D9FDFEF7F0FD05E00F21032003F0E7F9E3
:101A4000FEF7EFFDF8E700221146104602F051FDC7
:101A5000484802880121002002F04BFD00220221AB
:101A6000104602F046FD434802880321002002F0A0
:101A700040FD00BFFEE708B540F2263500240020F7
:101A800000909621084600F0B5FA2AE06946042045
:101A900003F016FC10BBBDF80000232809D10F216C
:101AA000032003F0B4F92546284601F0CFFA0024BC
:101AB00014E0BDF8000039280BDCBDF80000302828
:101AC00007DB04EB8400BDF8001001EB4000303868
:101AD00084B2BDF80010042003F0ADFB284601F0ED
:101AE000B5FAD3E78AB0202223A102A805F080FA34
:101AF00002A805F009F9002001900DE001A90420D9
:101B000003F0DEFB40B9BDF80410042003F093FBA2
:101B10000F21032003F07BF9F0E700007B14AE47B0
:101B2000E17A843F3000FF1F0E00FF1F4700FF1FB8
:101B3000000000207000FF1F007D00207400FF1FC8
:101B40007800FF1F7C00FF1F8000FF1F745F483D6F
:101B50003A25336400000000745F573D3A25336432
:101B6000000000008400FF1F666C61673D3A25336A
:101B7000640000006A00FF1F68656C6C6F202C20F9
:101B800075617274206D6F64756C65206973207265
:101B9000656164792100000010B50446072C13D25A
:101BA000DFE804F00406080A0C0E1000FFF79AFFA5
:101BB000FFF761FFFFF747FFFFF737FFFFF7EDFD87
:101BC000FFF751FDFFF779FB00BF00BF10BD2DE906
:101BD000F04104460D4616461F46FF21042003F03F
:101BE0002AFBFF21042003F026FB2112042003F02E
:101BF00022FBE1B2042003F01EFB2912042003F0B3
:101C00001AFBE9B2042003F016FB3112042003F0A2
:101C100012FBF1B2042003F00EFB3912042003F092
:101C20000AFBF9B2042003F006FB0021042003F0B4
:101C300002FB0021042003F0FEFABDE8F081000061
:101C40007CB5F04AF049012002F03EFCEF4AF04931
:101C5000022002F039FC012002F045FC022002F0D3
:101C600042FCEB4800684EF66021884205D9E848FE
:101C70000068A0F58030E6490860E34800684EF649
:101C80006021884205D9E0480068A0F58030DE492F
:101C90000860DF48008800B2DE490880DA48008822
:101CA000404200B2DC490880DA49B1F90010DA4A52
:101CB000B2F90020881800EBD071491009B2D74A58
:101CC0001180D7480088962830DDD6480078012852
:101CD0002CD1D548006807F005F8D4A2CDE9000161
:101CE0003021002004F0EBFFD348006806F0FAFF33
:101CF000D2A2CDE900014021002004F0E0FFD2484B
:101D0000006806F0EFFFD1A2CDE9000150210020CC
:101D100004F0D5FFD0480378D0A26021002004F061
:101D2000CEFF0020BF490870BD490880BD4800783B
:101D300001280ED1BA480088401CB9490880B64A2B
:101D4000128891B2B34A128890B2F0231A46FFF774
:101D50003EFF7CBD10B5C048007805283AD2DFE8C8
:101D600000F00308182F3400BF480088BF490880DE
:101D700031E0BF490988BC4A1288891A8800C11716
:101D800000EB5171B84A128802EBE101B74A1180A9
:101D900021E0B5480088B54908800846008840F22F
:101DA000FE21884202DA0846B0490880AF48008820
:101DB00040F24E31884202DD0846AC4908800AE014
:101DC000A9480088A949088005E0A7480088A749D4
:101DD000088000E000BF00BFA4480088B0F5387F4D
:101DE00003DA4FF43870A1490880A0480088B0F5A4
:101DF0005B7F03DD4FF45B709C4908809B48008843
:101E00009B4908809948008801F020F992480078A1
:101E1000042802D1322001F0B4F910BD70B5054696
:101E20000C4642F21070854200DD0546914885421D
:101E300000DA054642F21070844200DD04468D4807
:101E4000844200DA0446002D0ADD002203211046F8
:101E500002F04FFB2A460221002002F04AFB0AE072
:101E60006D422A460321002002F043FB002202219A
:101E7000104602F03EFB002C0ADD002211461046FF
:101E800002F037FB22460121002002F032FB0AE07B
:101E9000644222460021084602F02BFB0022012169
:101EA000104602F026FB70BD2DE9FF5F00240025DF
:101EB0000026002003907048B0F900005549B1F9A0
:101EC0000010441A6D48B0F900005349B1F90010F0
:101ED000451AA01B02900398281A019068480068D0
:101EE00020446749086067480068284465490860DD
:101EF000029806F0A1FF824653480168504606F05A
:101F0000C7FF80465E48006806F096FF00904A488A
:101F10000168009806F0BCFF8246204606F08CFF60
:101F2000009041480168009806F0B2FF8346514690
:101F300006F004FF8146414606F000FF074606F022
:101F40005FFF51490860019806F076FF82463E48DF
:101F50000168504606F09CFF80464A48006806F03B
:101F60006BFF009034480168009806F091FF8246AC
:101F7000284606F061FF00902B480168009806F0A3
:101F800087FF8346514606F0D9FE8146414606F05A
:101F9000D5FE074606F034FF3C4908603848006823
:101FA00042F21071884202DD084635490860344823
:101FB00000683049884202DA0846314908603148F1
:101FC000006842F21071884202DD08462D4908601F
:101FD0002C4800682749884202DA084629490860E7
:101FE0002A48016828480068FFF718FF264603952D
:101FF000BDE8FF9F02B2204B1A800AB21F4B1A8025
:10200000704700001F00FF1F2400FF1F1E00FF1F5E
:102010002000FF1F1000FF1F1200FF1F1400FF1FF2
:102020004400FF1F0E00FF1F2800FF1F70776D5F29
:102030004B703D3A253566002C00FF1F70776D5FB1
:102040004B693D3A253566003000FF1F70776D5FA4
:102050004B643D3A253566006200FF1F737461745E
:10206000653D3A25356400006800FF1F6400FF1FCE
:102070006600FF1FF0D8FFFF1A00FF1F1C00FF1FA4
:102080003400FF1F3800FF1F3C00FF1F4000FF1FF0
:1020900010B500207949C87779480088401C7849F4
:1020A0000880002001F076FB7448406A40F001008F
:1020B0007249486210BD10B5002406E00022214696
:1020C000042002F042FE601CC4B2082CF6DB6D480E
:1020D000006820F0FF006C49C1F8140101220A21B8
:1020E000042002F032FE01220B21042002F02DFE1A
:1020F00001220E21032002F028FE012300220A21E2
:10210000042002F09BFE012306220B21042002F092
:1021100095FE5B2000F0A8F8012305220E21032084
:1021200002F08CFE5A2000F09FF8022057490870F8
:1021300000205749087035204870012048804FF42E
:10214000A0708880002088714E48001FC860002061
:1021500048618860087408764E48086200208862EA
:102160000120C861002081F8240081F82C00084675
:1021700001F015FB01221146002001F05CFCAFF2DA
:10218000EF01002001F09DFC002001F003FB10BDD9
:1021900010B5414800680121B1EBD02F2FD1881E26
:1021A0003D4908603948007800B110BD002034492D
:1021B00008803A4908803A48007820B9354900201B
:1021C00001F0A0FC03E03749002001F09BFC5B20FC
:1021D00000F04AF85A2000F01F0201219140420904
:1021E000920002F1E022C2F8001100BF012027494D
:1021F00008702248406A40F001002049486200BF50
:10220000D3E710B5284800680121B1EB903F25D1F4
:10221000881E25490860254819490988405C1F49DE
:102220000988884210D11648008864280CDA0020FA
:1022300001F0B6FB1248008863280FD11C480088C3
:10224000401C1B49088009E00D480088642805DB14
:1022500002200E4908705A2000F006F80F48008846
:10226000401C0E49088010BD00F01F020121914062
:10227000104A430942F823107047000000800040D4
:102280004C00FF1F14F10F4000F00F404600FF1FED
:1022900000FA002000000020A0D004404E00FF1FE4
:1022A0004700FF1F007D0020A0C004401A910000DD
:1022B0004800FF1F80E100E010B50222002101204C
:1022C00002F043FD02220121084602F03EFD0222F7
:1022D0001146012002F039FD02220321012002F003
:1022E00034FD0021012002F079FD10B901203049B0
:1022F00008800121084602F071FD10B901202C4927
:1023000048800221012002F069FD10B9012028490E
:1023100088800321012002F061FD10B901202449C9
:10232000C8802348008822494988022202FB010014
:102330001F498988042202FB01001D49C98808221F
:1023400002FB0104204610BD10B50421012002F05B
:1023500045FD10B90120174908800521012002F030
:102360003DFD10B90120134948800621012002F0EB
:1023700035FD10B901200F4988800721012002F0A6
:102380002DFD10B901200B49C8800A480088094971
:102390004988022202FB010006498988042202FBC7
:1023A00001000449C988082202FB0104204610BD2F
:1023B0005000FF1F5800FF1F2DE9F047044620463C
:1023C00006F094FA0746D84AD84B06F0A3FA054619
:1023D00006F048FA1FFA80F94846BDE8F08710B5C4
:1023E000D348D449096850F82100012816D140F299
:1023F0006730D1490880C820D049088009880A3947
:1024000088B2FFF7D9FFCE490880CC4909880A3144
:1024100088B2FFF7D1FFCB49088015E040F2E520F4
:10242000C5490880C820C549088009880A3188B292
:10243000FFF7C2FFC2490880C04909880A3988B23B
:10244000FFF7BAFFBF490880BF480068012813D1D1
:10245000BE4800680A21B0FBF1F0BD49085CBD49E7
:102460000968884204D940F2E520B349088003E0B6
:1024700040F26730B0490880B3480068B649086048
:1024800010BD2DE9F047B54800680A2190FBF1F036
:10249000AF49085CB2490968A1EB000A504606F052
:1024A0000EFA0646AF4AB04B06F034FA0446002254
:1024B000AE4B06F02FF9804606F0D4F99E4908800D
:1024C0000846008840F21231884216DD9A4800889A
:1024D00040F23A31884210DA4FF4A07097490880F0
:1024E00008460088FFF768FF9549088093480088F0
:1024F000FFF762FF934908800FE04FF48C708F491B
:10250000088008460088FFF757FF8D4908808B48F0
:102510000088FFF751FF8B490880BDE8F0872DE95F
:10252000F04793488349096850F8210001281ED1DB
:102530008A4800680A2190FBF1F08549085C46381A
:1025400087490968A1EB000A504606F0B8F906462B
:10255000844A854B06F0DEF980460022834B06F064
:10256000D9F8044606F07EF9734908801DE07B48DF
:1025700000680A2190FBF1F07549085C4630784903
:102580000968A1EB000A504606F099F90646754A1B
:10259000754B06F0BFF904460022744B06F0BAF8FA
:1025A000804606F05FF9644908804FF48C706349F7
:1025B000088008460088FFF7FFFE614908805F48F1
:1025C0000088FFF7F9FE5F490880BDE8F08710B585
:1025D0006848006828B968480088401C6649088037
:1025E00002E00020644908806348008896280FDDD7
:1025F00040F2263000F02AFD6FF0C7010846FFF7D1
:10260000F9FC4FF47A7000F0BCFD00205A490880B4
:102610005A48B0F900001E281FDA59480078401CBB
:1026200057490870084600781E2819DB434800887F
:10263000002815DD40F2263000F008FD6FF0C701DC
:102640000846FFF7D7FC4FF47A7000F09AFD00209F
:10265000494908804A49087002E00020484908704A
:1026600010BD3E4800680A2190FBF1F03849085C33
:102670003B490968884204DD40F23A302E4908801F
:1026800003E040F212302C490880704710B52F4803
:1026900000680A21B0FBF1F02D49085C2D4909685A
:1026A000884218D94FF45170234908802C4800689B
:1026B00048B32A4800680A2190FBF1F02449085CDD
:1026C0002749096888421EDD00201949194A126805
:1026D00041F8220017E04FF4427017490880204863
:1026E000006880B11D4800680A2190FBF1F018498C
:1026F000085C1B490968884205DA01210C480D4A2B
:10270000126840F822104FF48C700C49088008467B
:102710000088FFF751FE0A49088008480088FFF743
:102720004BFE0849088010BD2CD49AE61DA7F23F45
:10273000B400FF1F0801FF1F6800FF1F6A00FF1F92
:102740006C00FF1F6E00FF1F9000FF1F7C00FF1F2B
:102750000C01FF1F8000FF1FAC00FF1F7400FF1F54
:102760007800FF1F85EB51B81E85DB3F00308940A4
:10277000DC00FF1F8400FF1F6000FF1F1400FF1F0D
:102780001601FF1F4CF220508049C8814DF62810D9
:10279000C8814FF4E97008804FF0FF307C494864ED
:1027A00000207C4908707A48406820F00100784990
:1027B00048602420784948709A2008700846C078FC
:1027C00000F01F00C870032008710020487100BF8E
:1027D0007148807900F002000028F9D000BF6E48EF
:1027E000807900F010000028F9D100BF6A48807994
:1027F00000F00C000828F9D10C20674908715C2012
:10280000487166486249486400BF6348807900F0B7
:1028100020000028F9D000BF5F48807900F0400018
:102820000028F9D01A205C49087000BF5A48807906
:1028300000F00C000C28F9D100BF5748807900F057
:1028400040000028F9D07047534A127802F0C002C5
:10285000002A67D1504A527902F04002002A51D131
:102860004D4A127802F00402C2B94B4A127B02F0C0
:1028700001020AB94A4801E04FF40040464A127882
:10288000C2F3C20301229A40D1B2B0FBF1F0424A36
:10289000527802F030021AB1400901E04FF40040D2
:1028A0003D4AD27802F0E00202F01F0343BB52110E
:1028B000082A25D2DFE802F004080C1014181C20A6
:1028C00000EB8002D0011CE000EB8002100218E057
:1028D000C0EB0012D00114E000EB8002500210E0C7
:1028E0004FF4377250430CE04FF4B762504308E0A6
:1028F00040F69502504304E040F67132504300E048
:1029000000BF38E0244A127902F01F02511C244A09
:10291000B2FBF1F0204A527902F01F0202F11801D5
:10292000484328E01C4A127802F0C002402A11D124
:10293000194A527802F0010212B94FF400401AE02D
:10294000154A127AC2F3420301229A40154BB3FB97
:10295000F2F010E0104A127802F0C002802A09D189
:102960000D4A127B02F001020AB90D4803E04FF450
:10297000004000E07047064A526C012303EB1272DC
:10298000B0FBF2F2084B1A6000BFF3E700200540ED
:10299000008004400050064000400640000017013F
:1029A00080F0FA0200093D001801FF1F0948804726
:1029B00009480047FEE7FEE7FEE7FEE7FEE7FEE721
:1029C000FEE7FEE7FEE7FEE704480549054A064B39
:1029D0007047000085270000110400009802FF1FC7
:1029E0009842FF1F9822FF1F9822FF1F0246F948B6
:1029F00050F8220050F8210000F0800008B10020BB
:102A000070470120FCE770B5134633B1012B1CD091
:102A1000022B25D0032B48D13CE0EF4C225602F08C
:102A20001F050124AC40ED4D560945F8264000BF76
:102A3000E84A52F8202052F8212022F04002E54CCA
:102A400054F8204044F8212030E0E24A52F8202097
:102A5000126A22F00402DF4C54F82040226225E082
:102A6000DC4A52F8202052F8212042F04002D94C92
:102A700054F8204044F82120D74C225602F01F057C
:102A80000124AC405509AD0005F1E025C5F8004131
:102A900000BF0BE0CF4A52F82020126A42F0040235
:102AA000CC4C54F82040226200E000BF00BF70BD53
:102AB000F0B50446C74850F82400406A40F00300CF
:102AC000C44951F824104862C24850F82400406AB2
:102AD00040F00300BF4951F824104862BD4850F847
:102AE0002400806840F00300BA4951F8241088603F
:102AF000B84850F82400406A40F04000B54951F809
:102B000024104862B34850F82400406A40F0800026
:102B1000B04951F824104862002211462046FFF7C0
:102B200072FF002700E07F1CAD488742FBD3A94815
:102B300050F82400406A00F0400008B10120F0BDC8
:102B40000025A44850F82400C06C0544A14850F862
:102B50002400806C05449F4850F82400406C0544D4
:102B60009C4850F82400006C05449A4850F8240012
:102B7000C06B0544974850F82400806B05444FF41F
:102B8000004040EA55050026924850F82400C06EE7
:102B90000644904850F82400806E06448D4850F852
:102BA0002400406E06448B4850F82400006E064412
:102BB000884850F82400C06D0644864850F8240028
:102BC000806D06444FF4004040EA5606814850F8B4
:102BD0002400406A20F080007E4951F824104862A9
:102BE0007C4850F82400C5627A4850F824000663F7
:102BF0000020A4E710B504467A49206851F8300057
:102C00000068784A216802EBC101496808432168DD
:102C100052F8311008602068FFF74AFF6D492068BC
:102C200051F82000806820F003006A4A216852F8B9
:102C3000211088601146206851F820008068617971
:102C400001F003010843216852F821108860114601
:102C5000206851F82000006A20F00300216852F833
:102C6000211008621146206851F82000006AA17AFC
:102C700001F003010843216852F82110086211464F
:102C8000206851F82000806820F00C00216852F87C
:102C9000211088601146206851F820008068A179D1
:102CA0000C2202EA810108434A4A216852F82110A5
:102CB0008860207901280BD11146206851F8200046
:102CC000006A40F04000216852F8211008620BE0D1
:102CD0004049206851F82000006A00F040003D4A59
:102CE000216852F821100862207A60B939492068B9
:102CF00051F82000406A40F00800364A216852F836
:102D0000211048620BE03349206851F82000406AE6
:102D100020F008002F4A216852F821104862607A9A
:102D200005287AD2DFE800F00310263E600029492A
:102D3000206851F82000406A20F00300254A2168ED
:102D400052F82110486269E02249206851F82000B9
:102D5000406A20F003001F4A216852F8211048629F
:102D60001146206851F82000406A216852F821106D
:102D7000486253E01749206851F82000406A20F06B
:102D80000300144A216852F8211048621146206855
:102D900051F82000406A40F00100216852F82110EB
:102DA00048623BE00B49206851F82000406A20F05F
:102DB0000300084A216852F8211048621146206831
:102DC00051F82000406A40F00200216852F82110BA
:102DD000486223E0809100009891000080E100E0CB
:102DE000A0860100889100007349206851F82000F6
:102DF000406A20F00300704A216852F821104862AE
:102E00001146206851F82000406A40F00300216814
:102E100052F82110486201E0FFE700BF00BF10BD7B
:102E200051B1654A52F82020126A42F04002624BCA
:102E300053F820301A6209E05F4A52F82020126AE3
:102E400002F040025C4B53F820301A62704749B9D7
:102E5000594A52F82020D26822F01002564B53F8FB
:102E60002030DA60012909D1534A52F82020D26873
:102E700042F01002504B53F82030DA60704773B5BF
:102E800084B00E4604AC207800F0070001900120C9
:102E90008DF809008DF80A6000208DF808008DF883
:102EA0000B0001208DF80C0000208DF80D008DF82E
:102EB0000E00002518E02388C3F38212C3F34423D5
:102EC0002B44D9B22378C3F3C20001F0F9FD228864
:102ED000C2F344222A44D1B22278C2F3C2000022B3
:102EE00001F013FE681CC5B22068C0F38430A8420C
:102EF000E1DC01A8FFF77EFE2268110E227802F0C5
:102F00000700FFF7A4FF207800F0070006B070BDAF
:102F100010B5294B53F8203053F8223023F01F030B
:102F2000254C54F8204044F82230234B53F82030ED
:102F300053F8223001F01F0423431F4C54F8204063
:102F400044F8223010BD02461B4850F822001030D1
:102F500050F82100704771B56C46207800F00705E5
:102F60002068C0F3C446002231462846FFF7D0FF50
:102F700000BF114850F82500006800F080000028CC
:102F8000F7D000212846FFF7DEFF78BD11B10B4ACC
:102F900042F82010704710B50848006810B1074982
:102FA0000868804710BD10B50448406810B1034957
:102FB0004868804710BD0000809100001C01FF1F81
:102FC00038B505460C466946022000F05BF82A48F1
:102FD000406B40F004002849486302220721032087
:102FE00001F06EFD0A20254988720020487105EB2A
:102FF000850000010099B1FBF0F021490880200A0A
:103000001E498871CC711E480088001B000A087296
:103010001B480078001B48720846407920F00400E5
:1030200048710846407940F00800487108464079E8
:1030300040F0010048710846007940F040000871F6
:103040000846007940F02000087138BD0C49098815
:10305000414342F2107291FBF2F188B2010A074A31
:103060009171D07106490988091A090A1172044937
:103070000978091A51727047008004400020064008
:103080002401FF1F10B5034600224448406C012470
:1030900004EB1070424C246800FB04F2062B2AD289
:1030A000DFE803F0030C15291E273C48406C01247F
:1030B00004EB1070B2FBF0F008601EE03748406C83
:1030C000012404EB1070B2FBF0F0086015E0334807
:1030D000406CC0F30360401CB2FBF0F008600CE0F1
:1030E0002E48406CC0F30340401CB2FBF0F0086077
:1030F00003E00A6001E0012010BD00BF0020FBE7F3
:1031000001460868704703B5684602680A600CBD4E
:103110002448006840F08070224908602248006816
:1031200040F0010020490860704730B501461E4C50
:1031300062681B4C24681D4DB4FBF5F404FB01F3DD
:10314000D018904205D900BF174C64688442FBD365
:1031500009E000BF144C64688442FBD800BF124CE5
:1031600064688442FBD330BD10B504464FF47A71D5
:1031700004FB01F0FFF7D9FF10BD00B5FFF7C8FF52
:1031800000BD10B504462046FFF7EEFF10BD10B598
:1031900004462046FFF7C9FF10BD70470080044079
:1031A0001801FF1FFCED00E0001000E040420F009E
:1031B000FE49C96A41F48051FC4AD1620179012972
:1031C00002D002291ED10EE0F94A016852F82110FE
:1031D00091F8211041F02001F54B026853F82220AC
:1031E00082F821100FE0F24A016852F8211091F89C
:1031F000211021F02001EE4B026853F8222082F8C2
:10320000211000E000BF00BF417931B1012913D086
:10321000022938D003297DD15EE0E54A016852F8E1
:10322000211091F8221021F00101E14B026853F8BE
:10323000222082F822107BE0DD4A016852F821103A
:1032400091F8221041F00101D94B026853F8222075
:1032500082F822101A46016852F8211091F82210C3
:1032600021F00601026853F8222082F822101A4643
:10327000016852F8211091F82210026853F82220B8
:1032800082F8221054E0CA4A016852F8211091F8DD
:10329000221041F00101C64B026853F8222082F847
:1032A00022101A46016852F8211091F8221021F0DC
:1032B0000601026853F8222082F822101A4601689B
:1032C00052F8211091F8221041F00201026853F8DF
:1032D000222082F822102BE0B54A016852F8211012
:1032E00091F8221041F00101B14B026853F82220FD
:1032F00082F822101A46016852F8211091F8221023
:1033000021F00601026853F8222082F822101A46A2
:10331000016800E00BE052F8211091F8221041F012
:103320000401026853F8222082F8221000E000BF56
:1033300000BF817911B101291ED10EE09C4A0168BC
:1033400052F8211091F8211021F04001984B0268A9
:1033500053F8222082F821100FE0954A016852F8B4
:10336000211091F8211041F04001914B026853F86F
:10337000222082F8211000E000BF00BF8C4A0168C3
:1033800052F8211091F8201021F00101884B0268B9
:1033900053F8222082F820101A46016852F82110B2
:1033A00091F8201021F00201026853F8222082F8DF
:1033B00020101A46016852F8211091F8201021F0CF
:1033C0000401026853F8222082F820101A4601688E
:1033D00052F8211091F8211041F08001026853F851
:1033E000222082F8211070470146714850F82100D0
:1033F00090F82300000970476D4A52F8202092F897
:10340000232022F0F0026A4B53F8203083F8232067
:10341000674A52F8202092F82320F02303EA011390
:103420001A43634B53F8203083F823207047604AD7
:1034300052F8202092F8232022F00F025C4B53F820
:10344000203083F823205A4A52F8202092F8232073
:1034500001F00F031A43564B53F8203083F8232012
:10346000704770B504460D46082D7CD2DFE805F0A4
:1034700010041D2E3F5069844E49085700F01F026A
:10348000012191404C4A430942F8231000BF96E0C5
:10349000474850F8240090F8220020F0800044496A
:1034A00051F8241081F8220089E0414850F82400A6
:1034B00090F8210040F004003D4951F8241081F8B3
:1034C00021003C49085700F056F978E0384850F898
:1034D000240090F8210040F00200354951F82410F2
:1034E00081F821003349085700F045F967E030487A
:1034F00050F8240090F8210040F001002C4951F8C8
:10350000241081F821002B49085700F034F956E0C7
:10351000274850F8240090F8210040F00400244986
:1035200051F8241081F82100214850F8240090F827
:10353000220040F080001E4951F8241081F822003A
:103540003DE01B4850F8240090F8210040F00200B4
:10355000174951F8241081F82100154850F824002B
:1035600090F8220000E029E040F08000104951F876
:10357000241081F8220022E00D4850F8240090F831
:10358000210040F001000A4951F8241081F821007F
:10359000074850F8240090F8220040F080000449C9
:1035A00051F8241081F8220009E000000080044056
:1035B0009C910000A491000080E100E000BF00BFEA
:1035C00070BD724951F8201091F8211041F010019E
:1035D0006E4A52F8202082F8211070476B4A52F848
:1035E000202092F8222022F01802684B53F8203055
:1035F00083F8222031B101290FD002291AD00329E2
:1036000032D124E0614A52F8202092F822205F4B08
:1036100053F8203083F8222027E05C4A52F820201B
:1036200092F8222042F00802584B53F8203083F8D9
:1036300022201AE0554A52F8202092F8222042F027
:103640001002524B53F8203083F822200DE04F4AED
:1036500052F8202092F8222042F018024B4B53F8E7
:10366000203083F8222000E000BF00BF704730B553
:103670000346002011E011F81040444D55F8235046
:1036800005F8104031F81040240A404D55F82350F9
:1036900005EB40056C70441CE0B29042EBDB30BDA2
:1036A00011B13B4A42F82010704710B53748006806
:1036B00090F8214004F0040048B13448006890F8C4
:1036C000200020F004003149096881F8200004F04E
:1036D000010048B12D48006890F8200020F001005A
:1036E0002A49096881F8200004F0020048B12748FF
:1036F000006890F8200020F002002449096881F851
:1037000020002348006810B121490868804710BD97
:1037100010B51E48006890F8214004F0040048B13C
:103720001A48006890F8200020F004001749096842
:1037300081F8200004F0010048B11448006890F8B6
:10374000200020F001001149096881F8200004F0F0
:10375000020048B10D48006890F8200020F00200F7
:103760000A49096881F820000948406810B10849F1
:103770004868804710BD00F01F02012191404209B6
:10378000920002F1E022C2F8001170479C91000003
:103790002801FF1F00F00F01F94A9176704710B51C
:1037A0000446F848C06B40F00200F649C86308467A
:1037B000006C40F0020008642378F148C0680121E1
:1037C00099408843EE49C860607800F03F00EE49B8
:1037D0005854A07910B101280ED106E0EA48185CCF
:1037E00020F04000E849585407E0E748185C40F0F2
:1037F0004000E549585400E000BF00BF0021E34805
:1038000000EB4310C180E14800EB431081836088E6
:10381000DE4901EB43118860A088C0F30E01DB484C
:1038200000EB4310C182A088C0F30E01D74800EB23
:103830004310C183D54800EB4310E1680160208943
:1038400081B2D24800EB43108180D04800EB431096
:10385000C188207C4FF4E06202EA00200143CB489B
:1038600000EB4310C180C94800EB4310C088217EA3
:103870004FF4784202EAC1210843C44901EB4311E5
:10388000C880C24901EB43116069C860BF4800EBC2
:103890004310216A0161A08B81B2BC4800EB431048
:1038A0008182BA4800EB4310C18894F8240000F0EC
:1038B00007000143B54800EB4310C180B34800EB5B
:1038C0004310C08894F82C10F82202EAC101084382
:1038D000AE4901EB4311C880AC4901EB4311A06A2A
:1038E0008861AA4800EB4310808B40F00801A7488C
:1038F00000EB431081834CF20A01A44800EB431013
:103900008183A148185C40F080009F4958541846B4
:10391000FFF740FF9A48406A0121994008439849BF
:103920004862184610BD202200210FE00120884087
:10393000974B1B68184040B901208840944B1B6886
:103940001843934B186008467047491C9142EDD3C9
:103950000020F9E7012181408D4A12688A438C4991
:103960000A6070470146894800EB4110C08AC0F3E5
:103970000E007047854A02EB4012D28AD30BDB035C
:10398000824A02EB4012D382804A02EB4012D28A72
:10399000C1F30E031A437D4B03EB4013DA827047E9
:1039A00000F00F01764AD176704751B1774A02EBA9
:1039B0004012928B42F00803744A02EB4012938348
:1039C00009E0724A02EB4012928B22F008036F4A20
:1039D00002EB40129383704710B50AB36B4B03EBB5
:1039E00040139B8B43F02004684B03EB40139C83F4
:1039F000664B03EB40139B8B23F47064634B03EB28
:103A000040139C83614B03EB40139B8B4FF470641A
:103A100004EA012423435D4C04EB4014A38309E032
:103A20005A4B03EB40139B8B23F02004574B03EBC3
:103A300040139C8310BD30B50B466AB1554C2156DE
:103A400001F01F050124AC404D09AD0005F1E02552
:103A5000C5F8004100BF00BF13B1012B2ED116E005
:103A600052B14A4901EB4011898B41F004044749A6
:103A700001EB40118C8309E0444901EB4011898B33
:103A800021F00404414901EB40118C8317E052B14D
:103A90003E4901EB4011898B41F002043B4901EBA7
:103AA00040118C8309E0394901EB4011898B21F0E9
:103AB0000204364901EB40118C8300E000BF00BFD7
:103AC00030BD11B1344A42F82010704701462C48ED
:103AD000C06801228A40104070B12C4800EB4110B0
:103AE000808B00F0800028B101F00F00244A10778D
:103AF000002070470120FCE701F00F00204A1077FA
:103B00000020F6E7214A02EB40121161704701469E
:103B10001E4800EB4110006970471C4A02EB40123E
:103B2000116070470146194800EB4110006870476A
:103B30001348006840F4003011490860704710B520
:103B400000200F49C8771448006810B1124908686E
:103B5000804710BD10B501200949C8770E4840685C
:103B600010B10D494868804710BD10B502200449C6
:103B7000C8770948806810B107498868804710BD38
:103B8000008000400080044000100240009000408F
:103B90003001FF1FA69100007401FF1F10B5032024
:103BA0004649C8774648C06810B14549C86880474B
:103BB00010BD10B504204149C8774148006910B1D3
:103BC0003F490869804710BD10B505203B49C877BB
:103BD0003B48406910B13A494869804710BD10B56B
:103BE00006203649C8773648806910B1344988695B
:103BF000804710BD10B507203049C8773048C069EC
:103C000010B12F49C869804710BD10B508202B4955
:103C1000C8772B48006A10B12949086A804710BD4F
:103C200010B509202549C8772548406A10B12449B4
:103C3000486A804710BD10B50A202049C87720483F
:103C4000806A10B11E49886A804710BD10B50B20EC
:103C50001A49C8771A48C06A10B11949C86A80471A
:103C600010BD10B50C201549C8771548006B10B170
:103C70001349086B804710BD10B50D200F49C87758
:103C80000F48406B10B10E49486B804710BD10B50E
:103C90000E200A49C8770A48806B10B10849886B22
:103CA000804710BD10B50F200449C8770448C06B89
:103CB00010B10349C86B804710BD00000080004070
:103CC0007401FF1F10B5FE4B53F830301B68FC4CDD
:103CD00004EBC00464682343F94C54F8304023607B
:103CE0000023F84C54F820402360F64B53F8203062
:103CF0005B6D43F00403F34C54F8204063650023EC
:103D0000F04C54F820406360EE4C54F82040E364DB
:103D1000EC4B53F8203099604FF0FF33E94C54F8E6
:103D20002040C4F89830E74B53F820301B6823F04C
:103D30001803E44C54F820402360E24B53F8203041
:103D40001B6843F00803DF4C54F820402360DD4B30
:103D500053F820301B6823F00703DA4C54F8204056
:103D60002360D84B53F820301B6802F0070423432C
:103D7000D44C54F82040236010BD014609B10129FC
:103D800001D100207047022901D0032901D101206F
:103D9000F8E7042901D0052901D10220F2E7032028
:103DA000F0E72DE9F04104460E4615461F464FF058
:103DB0000008062D34D2DFE805F0030B131B232B7C
:103DC0003046FFF7DAFFC100012000FA01F828E0D1
:103DD0003046FFF7D2FFC100022000FA01F820E0D0
:103DE0003046FFF7CAFFC100042000FA01F818E0CE
:103DF0003046FFF7C2FFC100102000FA01F810E0C2
:103E00003046FFF7BAFFC100202000FA01F808E0B1
:103E10003046FFF7B2FFC100402000FA01F800E091
:103E200000BF00BF012F0AD1A64850F82400406E01
:103E300040EA0800A34951F82410486609E0A14867
:103E400050F82400406E20EA08009E4951F82410E2
:103E50004866BDE8F08110B512B1012A3AD11CE0E4
:103E6000984B53F820300C3353F8313023F00404CE
:103E7000944B53F820300C3343F83140914B53F8B6
:103E800020300C3353F8313043F008048D4B53F895
:103E900020300C3343F831401DE08A4B53F820307A
:103EA0000C3353F8313043F00404864B53F8203080
:103EB0000C3343F83140834B53F820300C3353F824
:103EC000313023F008047F4B53F820300C3343F893
:103ED000314000E000BF00BF10BD70B504460D4684
:103EE0001646062E7ED2DFE806F0035BF1FDA2EF58
:103EF000744850F82400406D20F00100714951F8D9
:103F0000241048656F4850F82400D0F8800020F055
:103F100001006C4951F82410C1F88000694850F83C
:103F20002400006820F02000664951F82410086041
:103F3000644850F824000C3050F8350040F030014F
:103F4000604850F824000C3040F835100022294613
:103F50002046FFF780FF00231A4629462046FFF738
:103F600020FF0023012229462046FFF71AFF0023E5
:103F7000022229462046FFF714FF00230322294688
:103F80002046FFF70EFF0023042229462046FFF7B4
:103F900008FF0023052229462046FFF702FFD3E150
:103FA000484850F82400406D20F00100454951F880
:103FB00024104865434850F82400D0F8800020F0D1
:103FC0000100404951F82410C1F880003D4850F8E4
:103FD0002400006840F020003A4951F8241008609D
:103FE000002300E0AFE11A4629462046FFF7D9FE3C
:103FF0000023012229462046FFF7D3FE0023022298
:1040000029462046FFF7CDFE0023032229462046FD
:10401000FFF7C7FE0023042229462046FFF7C1FE12
:104020000023052229462046FFF7BBFE8CE12548E8
:1040300050F82400D0F8800020F00100214951F808
:104040002410C1F880001F4850F82400406D20F073
:1040500001001C4951F8241048651A4850F8240002
:10406000006820F02000174951F824100860154816
:1040700050F824000C3050F8350020F03001114881
:1040800050F824000C3040F8351000231A46294619
:104090002046FFF786FE0023012229462046FFF72F
:1040A00080FE0023022229462046FFF77AFE0023E5
:1040B000032229462046FFF774FE0023042206E06F
:1040C000D0910000B8910000EEE00BE07BE02946C3
:1040D0002046FFF766FE0023052229462046FFF70B
:1040E00060FE31E1F74850F82400D0F8800020F05D
:1040F0000100F44951F82410C1F88000F14850F84B
:104100002400006820F02000EE4951F824100860D7
:10411000EC4850F82400406D40F00400E94951F8A3
:1041200024104865E74850F82400406D40F0010035
:10413000E44951F82410486501230022294620460D
:10414000FFF72FFE01231A4629462046FFF729FED6
:104150000023022229462046FFF723FE00230322E4
:1041600029462046FFF71DFE01230422294620464A
:10417000FFF717FE0023052229462046FFF711FE10
:10418000D04850F824000C3050F8350040F0300191
:10419000CC4850F824000C3040F835100022294655
:1041A0002046FFF758FE0320C64951F824108865C1
:1041B000C44850F82400806D40F08000C14951F897
:1041C00024108865C0E0BF4850F82400D0F8800073
:1041D00020F00100BB4951F82410C1F88000B94813
:1041E00050F82400006820F02000B64951F824104F
:1041F0000860B44850F82400406D40F00400B14914
:1042000051F824104865AF4850F82400406D40F044
:104210000100AC4951F824104865012300222946C9
:104220002046FFF7BEFD0023012229462046FFF766
:10423000B8FD0023022229462046FFF7B2FD0023E5
:10424000032229462046FFF7ACFD0123042229461C
:104250002046FFF7A6FD0023052229462046FFF74A
:10426000A0FD984850F824000C3050F8350040F07C
:104270003001944850F824000C3040F835100022EA
:1042800029462046FFF7E7FD03208E4951F8241008
:1042900088658C4850F82400806D40F08000894982
:1042A00051F8241088654FE0864850F82400D0F873
:1042B000800040F00100834951F82410C1F88000CB
:1042C000804850F82400006820F020007D4951F813
:1042D000241008607B4850F82400406D40F0040032
:1042E000784951F824104865764850F82400406D0C
:1042F00040F00100734951F8241048650123002261
:1043000029462046FFF74DFD00230122294620467D
:10431000FFF747FD0023022229462046FFF741FD13
:104320000023032229462046FFF73BFD00230422F9
:1043300029462046FFF735FD002305222946204661
:10434000FFF72FFD00E000BF00BF70BDF7B50E46C0
:1043500017466C46217801F0070000224FF6FF71E6
:10436000FFF7B0FC217801F0070005220021FFF7DC
:10437000B4FD16B1012E48D123E0207800F00700EB
:10438000504951F82000D0F8800020F0200021781A
:1043900001F007014B4A52F82110C1F88000207843
:1043A00000F00700114651F82000D0F8800020F0FE
:1043B0001000217801F0070152F82110C1F88000A7
:1043C00024E0207800F007003E4951F82000D0F8A2
:1043D000800040F02000217801F00701394A52F8AE
:1043E0002110C1F88000207800F00700114651F834
:1043F0002000D0F8800040F01000217801F0070183
:1044000052F82110C1F8800000E000BF00BF17B1D2
:10441000012F26D112E0207800F00700294951F839
:104420002000D0F8800020F00800217801F007017A
:10443000244A52F82110C1F8800013E0207800F0DF
:104440000700204951F82000D0F8800040F0080013
:10445000217801F007011B4A52F82110C1F88000B1
:1044600000E000BF00BF002523E02388C3F38212D1
:10447000C3F344232B44D9B22378C3F3C20000F022
:104480001FFB2288C2F344222A44D1B22278C2F30D
:10449000C200012200F039FB2288C2F344222A44E0
:1044A000D1B22278C2F3C200012200F07FFB681C67
:1044B000C5B22068C0F38430A842D6DC207800F072
:1044C0000700FEBDB8910000FE4B53F82030D3F832
:1044D0008030C3F380031370FA4B53F820305B68CD
:1044E0009BB20B6070470021F64A52F820205160C1
:1044F000704770B51346F34C54F82040A4685C43F1
:1045000042F21075B4FBF5F2EE4C54F82040646EA4
:1045100004F001347CB30C4601EBD4756D10A1EBB3
:10452000450585B10026E74C54F820400C344D1E5B
:1045300004EBC5046660E34C54F820400C3404EBF3
:10454000C10462600FE00025DE4C54F820400C34BA
:1045500004EBC1046560DB4C54F820400C344D1C66
:1045600004EBC50462604FF0FF34D64D55F820507F
:10457000C5F8984007E0FFE7D24C54F820400C34CF
:1045800004EBC104626070BD2DE9F74F82B089462B
:104590009046002702AC00250DE02388C3F3821269
:1045A000C3F344232B44D9B22378C3F3C20000F0F1
:1045B00087FA681CC5B22068C0F38430A842ECDCDE
:1045C0004FF6FF7B01A90220FEF75CFD0198B0FBCE
:1045D000F8F05946B0FBF1F60198B0FBF8F0B0FBEB
:1045E000F6F0B0F5803F00D3761C00251BE00120DB
:1045F000A840301A03D50120A840801B02E001200A
:10460000A840301A58450CD22F460120A840301A35
:1046100003D50120A840801B02E00120A840301AE9
:104620008346681CC5B2072DE1DB0120B840B042CB
:1046300001DA781CC7B2072F00DD07270120B84038
:104640000199B1FBF0F0B0FBF8F0A0F1010A21787C
:1046500001F007003A465146FFF734FBB9F1000F6D
:1046600006D0B9F1010F0DD0B9F1020F1ED113E040
:104670002268C2F3C441227802F007000022FFF74B
:104680002CFC14E02268C2F3C441227802F0070037
:104690000222FFF722FC0AE02268C2F3C44122781A
:1046A00002F007000322FFF718FC00E000BF00BF84
:1046B0002268C2F3C441227802F0070041F2883236
:1046C000FFF717FF207800F0070005B0BDE8F08F76
:1046D00073B50E466C4600250CE02388C3F38212A6
:1046E000C3F344232B44D9B22378C3F3C20000F0B0
:1046F000E7F96D1C2068C0F38430A842EDD821781A
:1047000001F0070032464FF6FF71FFF7DBFA22682F
:10471000C2F3C441227802F007000422FFF7DDFB58
:104720007CBD10B5674B53F820300C3353F8313053
:1047300023F00C04634B53F820300C3343F8314022
:1047400022B1012A1FD0022A49D139E05D4B53F82A
:1047500020300C3353F8313023F00804594B53F810
:1047600020300C3343F83140564B53F820300C3393
:1047700053F8313043F00404524B53F820300C33DB
:1047800043F831402CE04F4B53F820300C3353F8B2
:10479000313043F008044B4B53F820300C3343F8CE
:1047A0003140484B53F820300C3353F8313023F06C
:1047B0000404444B53F820300C3343F831400FE0ED
:1047C000404B53F820300C3353F8313043F00C0495
:1047D0003C4B53F820300C3343F8314000E000BF2D
:1047E00000BF10BD0246374850F822000C3000EBE5
:1047F000C10040687047334A52F82020516070472A
:1048000011B1314A42F82010704730B511297DD2DC
:10481000DFE801F009202122232425262748494AE0
:104820004B4C4D4E4F0052B1264B53F820301B6875
:1048300043F04003234C54F82040236009E0214B0F
:1048400053F820301B6823F040031E4C54F82040DE
:10485000236084E000BF00BF00BF00BF00BF00BFF7
:1048600000BF7AB1174B53F820300C334C1E53F86D
:10487000343043F04005134B53F820300C3343F8E9
:1048800034500EE00F4B53F820300C334C1E53F8CD
:10489000343023F040050B4B53F820300C3343F8F1
:1048A00034505CE000BF00BF00BF00BF00BF00BFCE
:1048B00000BFC2B1034B53F820400C34A1F10903EF
:1048C00004E00000B8910000B401FF1F54F8333039
:1048D00043F04005764B53F820400C34A1F1090316
:1048E00044F8335011E0724B53F820400C34A1F1DE
:1048F000090354F8333023F040056D4B53F8204042
:104900000C34A1F1090344F8335000E026E092B1E1
:10491000674B53F820400C34A1F1090354F83330AD
:1049200043F00105624B53F820400C34A1F1090318
:1049300044F8335011E05E4B53F820400C34A1F1A1
:10494000090354F8333023F00105594B53F8204044
:104950000C34A1F1090344F8335000E000BF00BF5C
:10496000544C235603F01F050124AC405D09AD00F3
:1049700005F1E025C5F8004100BF30BD10B54E4837
:10498000006810B14C4908688047494800680068D1
:1049900000F0C00038B146480068006820F0800090
:1049A000434909680860002415E0414800680C305C
:1049B00050F8340000F0C00060B13D4800680C3091
:1049C00050F8340020F08001394800680C3040F87D
:1049D000341004E0641C39480068A042E5D800BFE8
:1049E00010BD10B53448406810B13349486880475D
:1049F0002F484068006800F0C00038B12C4840687B
:104A0000006840F080002A4949680860002415E0E9
:104A1000274840680C3050F8340000F0C00060B106
:104A2000234840680C3050F8340020F080012048C2
:104A300040680C3040F8341004E0641C1F484068A3
:104A4000A042E5D800BF10BD10B51B48806810B16A
:104A500019498868804716488068006800F0C000DF
:104A600038B113488068006820F0800010498968D8
:104A70000860002415E00E4880680C3050F83400BF
:104A800000F0C00060B10A4880680C3050F8340073
:104A900020F08001064880680C3040F8341004E0B3
:104AA000641C06488068A042E5D800BF10BD000025
:104AB000B8910000E8910000B401FF1FC49100000C
:104AC00010B5FC4B9B6BFC4C54F820402343F94C35
:104AD000A363FA4B53F8203053F8213023F4E063FA
:104AE000F64C54F8204044F82130F44B53F8203071
:104AF00053F821304FF4E06404EA02242343EF4CDE
:104B000054F8204044F8213010BD10B5E94B9B6BA0
:104B1000E94C54F820402343E64CA36322B1012A18
:104B20000FD0022A3FD125E0E44B53F8203053F850
:104B3000213023F00203E14C54F8204044F82130A6
:104B400032E0DE4B53F8203053F8213043F00203BB
:104B5000DA4C54F8204044F82130D84B53F8203038
:104B600053F8213043F00103D44C54F8204044F86A
:104B7000213019E0D14B53F8203053F8213043F065
:104B80000203CE4C54F8204044F82130CB4B53F86C
:104B9000203053F8213023F00103C84C54F8204052
:104BA00044F8213000E000BF00BF10BD10B5C14B7C
:104BB0009B6BC14C54F820402343BE4CA363012A95
:104BC0000CD1BE4B53F8203053F8213043F0200372
:104BD000BA4C54F8204044F821300BE0B74B53F85E
:104BE000203053F8213023F02003B44C54F82040F7
:104BF00044F8213010BD10B5AE4B9B6BAE4C54F851
:104C000020402343AB4CA363012A0CD1AB4B53F898
:104C1000203053F8213043F01003A84C54F82040C2
:104C200044F821300BE0A54B53F8203053F82130E5
:104C300023F01003A14C54F8204044F8213010BD5B
:104C400010B59C4B9B6B9C4C54F820402343994CD3
:104C5000A363012A0BD19A4B53F820305B690124DE
:104C60008C402343964C54F8204063610AE0944BF7
:104C700053F820305B6901248C40A343904C54F8D6
:104C80002040636110BD10B50446E078052854D279
:104C9000DFE800F00313233343002179207800225A
:104CA000FFF733FF217920780022FFF77FFF21797A
:104CB00020780022FFF7C4FF40E02179207802220B
:104CC000FFF723FF217920780022FFF76FFF21797A
:104CD00020780022FFF7B4FF30E02179207801220C
:104CE000FFF713FF217920780022FFF75FFF21797A
:104CF00020780022FFF7A4FF20E02179207801220C
:104D0000FFF703FF217920780122FFF74FFF217978
:104D100020780122FFF794FF10E02179207800220B
:104D2000FFF7F3FE217920780022FFF73FFF21797A
:104D300020780122FFF784FF00E000BF00BF217947
:104D400020780122FFF7BCFE10BD7CB504460D465D
:104D50001646E0B28DF800008DF8036001956846B4
:104D6000FFF791FFE0B27CBD10B5524B9B6B524CEC
:104D700054F8204023434F4CA3635AB1504B53F88F
:104D800020305B6801248C4023434D4C54F8204074
:104D900063600AE04A4B53F820309B6801248C4042
:104DA0002343474C54F82040A36010BD444A52F8B6
:104DB0002020526801238B401A43414B53F8203086
:104DC0005A6070473E4A52F82020926801238B4077
:104DD0001A433B4B53F820309A60704702463848DC
:104DE00050F822004069C84000F0010038B1344852
:104DF00050F822000068C84000F0010070473048B9
:104E000050F822000069C84000F00100F6E72C4A83
:104E100052F82020D26801238B401A43284B53F8C4
:104E20002030DA6070470146254850F821000069BB
:104E30007047234A52F82020116070472DE9F04155
:104E400004460D4616461F461A48806B1A4951F80B
:104E50002410084317498863184850F8240050F874
:104E6000250020F47020154951F8241041F8250040
:104E700067B91449085700F01F0201219140124AF6
:104E8000430942F8231000BFBDE8F081092E77D214
:104E9000DFE806F01C29360543546577880007488B
:104EA00050F8240050F82500044951F8241041F826
:104EB000250089E000800440149200000092000068
:104EC000EC9100002892000080E100E0684850F872
:104ED000240050F8250040F48030654951F8241032
:104EE00041F8250070E0624850F8240050F8250091
:104EF00040F400305E4951F8241041F8250063E089
:104F00005B4850F8240050F8250040F440305849E0
:104F100051F8241041F8250056E0554850F8240077
:104F200050F8250040F40020514951F8241041F870
:104F300025005049085700F090F845E04C4850F8DB
:104F4000240050F8250040F41020494951F824105D
:104F500041F825004749085700F07FF834E04448FD
:104F600050F8240050F8250040F42020404951F822
:104F7000241041F825003F49085700F06EF823E05F
:104F800021E03B4850F8240050F8250040F4302040
:104F9000374951F8241041F825003649085700F0E8
:104FA0005CF811E0324850F8240050F8250040F435
:104FB00040202F4951F8241041F825002D49085769
:104FC00000F04BF800E000BF00BF00BF5CE72A4ADA
:104FD000926B2A4B53F820301A43274B9A6311B136
:104FE000274A42F82010704710B521480068D0F8D1
:104FF000A0404FF0FF301E490968C1F8A0002048CA
:10500000006818B11E4801682046884710BD10B5D9
:1050100017484068D0F8A0404FF0FF301449496865
:10502000C1F8A0001648406818B1154841682046EC
:10503000884710BD10B50E488068D0F8A0404FF0EA
:10504000FF300B498968C1F8A0000D48806818B18D
:105050000B4881682046884710BD00F01F020121DF
:1050600091404209920002F1E022C2F8001170471B
:10507000009200002892000000800440149200007A
:10508000C001FF1F10B504465E48C06B40F400002D
:105090005C49C8635C490220FDF7F4FF5A48006888
:1050A0005A49B0FBF1F05849086060680968484304
:1050B0005749227801EB021108605548217800EB2E
:1050C0000110806840F001015148227800EB021085
:1050D00081605048006820F002004E49086010BD11
:1050E0007CB505460C468DF8005001946846FFF7E4
:1050F000C9FF7CBD30B50B464249C96B41F4000184
:10510000404CE1636AB1444C215601F01F05012473
:10511000AC404D09AD0005F1E025C5F8004100BFE8
:1051200000BF52B13A4901EB0011896841F0020415
:10513000374901EB00118C6009E0354901EB0011A2
:10514000896821F00204324901EB00118C604AB9F0
:105150002F4901EB0011C96841F001042C4901EB12
:105160000011CC6030BD2A4901EB0011896821F0A3
:105170000102274901EB00118A60254901EB00116A
:10518000896841F00102224901EB00118A607047F1
:1051900001461F4800EB011040687047194AD26B66
:1051A00042F40002174BDA6311B11C4A42F8201096
:1051B000704710B50446164800EB0410C06840F074
:1051C0000101134800EB0410C160144850F824009A
:1051D00018B1124951F82400804710BD10B50020C5
:1051E000FFF7E7FF10BD10B50120FFF7E2FF10BD8C
:1051F00010B50220FFF7DDFF10BD10B50320FFF74B
:10520000D8FF10BD008004403401FF1F40420F0052
:1052100000710340007003402D920000D401FF1F75
:105220000146FB4850F82100007CC0F30210F94A07
:1052300052F82000704730B503460C46F44850F849
:105240002300007C00F0800050B100BF1846FFF73B
:10525000E7FFEF4951F82310097D8842F6D908E0AD
:1052600000BFEB4850F82300007900F080000028D0
:10527000F7D0E74951F82310CC71C4F3002555B19C
:10528000E34850F82300807940F04000E04951F8AD
:105290002310887109E0DE4850F82300807920F05F
:1052A0004000DB4951F82310887130BD30B5044609
:1052B0000D46A1B2D8480078FFF7BDFF204630BDAB
:1052C00010B502460023D24850F82200007900F0C1
:1052D000200078B1CE4850F822008079C309180226
:1052E00008800888CA4C54F82240E479204308809A
:1052F000002010BD0120FCE718B5044600BF694638
:10530000C5480078FFF7DCFF0028F8D1BDF80000A1
:10531000C0B218BD30B50379C04C54F833301B68A7
:105320000479BE4D05EBC40464682343047955F841
:10533000344023600379B64C54F82330DB7823F0F3
:105340000C030479B24D55F82440E37084682401BD
:105350000368B3FBF4F399B203685B01846824012A
:10536000B3FBF4F3202404FB1133DAB203792C46A7
:1053700054F823301B78C1F304242343047955F8EF
:1053800024402370047955F82440617003792C4639
:1053900054F823309B7A02F01F042343047955F814
:1053A0002440A372037B23B1022B1AD0032B48D1D4
:1053B0002FE00379964C54F823309B7823F00203B6
:1053C0000479934D55F82440A37003792C4654F882
:1053D00023309B7823F01003047955F82440A37000
:1053E00030E003798A4C54F823309B7843F0020371
:1053F0000479874D55F82440A37003792C4654F85E
:1054000023309B7823F00103047955F82440A370DE
:1054100018E003797E4C54F823309B7843F0020364
:1054200004797B4D55F82440A37003792C4654F839
:1054300023309B7843F00103047955F82440A3708E
:1054400000E000BF00BF437B13B1012B6ED136E0FB
:1054500003796F4C54F823309B7803F00203B3B107
:10546000037954F823309B7843F010030479684D96
:1054700055F82440A37003792C4654F823309B7AC6
:1054800023F02003047955F82440A37216E0037931
:105490005F4C54F823309B7823F0100304795C4D63
:1054A00055F82440A37003792C4654F823309B7A96
:1054B00023F02003047955F82440A37237E00379E0
:1054C000534C54F823309B7803F00203B3B10379B3
:1054D00054F823309B7843F0100304794C4D55F871
:1054E0002440A37003792C4654F823309B7A43F070
:1054F0002003047955F82440A37216E00379444C44
:1055000054F823309B7843F010030479404D55F84C
:105510002440A37003792C4654F823309B7A23F05F
:105520002003047955F82440A37200E000BF00BFB7
:105530000379374C54F823305B7923F02003047946
:10554000334D55F82440637103792C4654F82330C9
:10555000DB7843F00C03047955F82440E370304BBA
:105560001B7813B103792C4C237000232C4C23702F
:1055700030BD00BF264951F82010097901F08001A3
:105580000029F7D0224951F82010C97821F00C01E8
:105590001F4A52F82020D170204951F83010096874
:1055A0001E4A02EBC002526811431C4A52F83020D6
:1055B00011607047194951F830100968174A02EB19
:1055C000C0025268114009B1134A1070704700BF01
:1055D0000F4A52F82020127902F08002002AF7D0F8
:1055E00051B10B4A52F82020127C42F08002084B45
:1055F00053F820301A7409E0054A52F82020127C32
:1056000022F08002024B53F820301A7470470000D9
:1056100034920000849200003801FF1F4C92000079
:105620005C01FF1F51B1FE4A52F82020127C42F06B
:105630000802FB4B53F820301A7409E0F84A52F87C
:105640002020127C22F00802F54B53F820301A7407
:1056500070470146F24850F82100007C00F0070036
:10566000F04A52F820007047ED4A52F82020D278D4
:1056700022F00802EA4B53F82030DA70E84B53F876
:105680002030D974E64A52F82020D27842F008023D
:10569000E34B53F82030DA707047E14A52F820208B
:1056A000D27822F00402DE4B53F82030DA70DC4B63
:1056B00053F820305975DA4A52F82020D27842F057
:1056C0000402D74B53F82030DA70704770B50446A7
:1056D0000E461546D44850F834000068D24901EB14
:1056E000C40149680843D04951F83410086036B104
:1056F000012E3AD0022E1DD0032E6FD162E055B19B
:10570000C74850F82400C07840F08000C44951F8E0
:105710002410C87009E0C24850F82400C07820F076
:105720008000BF4951F82410C870C049085700F0E4
:105730007FFA76E055B1BA4850F82400C07840F0BE
:105740002000B74951F82410C87009E0B44850F857
:105750002400C07820F02000B14951F82410C8700E
:10576000B249085700F064FA5BE055B1AC4850F814
:105770002400C07840F08000A94951F82410C87076
:1057800009E0A74850F82400C07820F08000A44920
:1057900051F82410C87055B1A14850F82400C07ABF
:1057A00040F080009E4951F82410C87209E09C48DE
:1057B00050F82400C07A20F08000994951F8241054
:1057C000C8722EE05DB1964850F82400C07840F0D1
:1057D0002000934951F82410C8700AE020E0904856
:1057E00050F82400C07820F020008D4951F8241092
:1057F000C87055B18A4850F82400C07A40F02000A3
:10580000874951F82410C87209E0854850F82400EF
:10581000C07A20F02000824951F82410C87200E0BC
:1058200000BF00BF70BD804A52F8302012687E4B26
:1058300003EBC0035B681A437B4B53F830301A60AC
:1058400011B17B4A42F820107047774A52F8302055
:105850001268754B03EBC0035B681A43724B53F835
:1058600030301A6011B1734A42F82010704773B596
:1058700086B00E4606AC0396207800F007008DF83F
:10588000080000208DF810008DF8110005A90220F5
:10589000FDF7F8FB207800F0070020B1207800F039
:1058A0000700012803D105A90020FDF7EBFB0598AF
:1058B000019000250DE02388C3F38212C3F3442333
:1058C0002B44D9B22378C3F3C200FFF7F9F8681C60
:1058D000C5B22068C0F38430A842ECDC01A8FFF711
:1058E00019FD217801F007000021FFF770FE2178F3
:1058F00001F007000021FFF795FE207800F0070077
:1059000008B070BD08B546480068007900F0800016
:1059100088B143480068C07800F0800058B144481E
:10592000006818B14248016868468847BDF8000021
:105930003B490968C8713A480068007900F02000C6
:1059400088B137480068C07800F0200058B134486A
:105950000068C07900903748006820B13548016878
:10596000BDF80000884708BD08B52D48406800799B
:1059700000F0800088B12A484068C07800F08000BC
:1059800058B12B48406818B1294841686846884793
:10599000BDF8000022494968C87121484068007973
:1059A00000F0200088B11E484068C07800F0200058
:1059B00058B11B484068C07900901E48406820B12B
:1059C0001C484168BDF80000884708BD08B5144868
:1059D0008068007900F0800088B111488068C07844
:1059E00000F0800058B11248806818B110488168F2
:1059F00068468847BDF8000009498968C8710848A9
:105A00008068007900F02000F0B105488068C07817
:105A100000F02000C0B102488068C07900900BE01F
:105A200034920000849200004C9200007C920000AE
:105A3000E401FF1FFC01FF1F8348806820B18248FA
:105A40008168BDF80000884708BD08B57F48C06878
:105A5000007900F0800088B17C48C068C07800F010
:105A6000800058B17A48C06818B17948C168684662
:105A70008847BDF800007549C968C8717348C06897
:105A8000007900F0200088B17048C068C07800F04C
:105A9000200058B16D48C068C07900906A48C0685D
:105AA00020B16948C168BDF80000884708BD08B545
:105AB00066480069007900F0800088B16348006999
:105AC000C07800F0800058B16148006918B16048A2
:105AD000016968468847BDF800005C490969C871DA
:105AE0005A480069007900F0200088B157480069E1
:105AF000C07800F0200058B154480069C079009087
:105B00005148006920B150480169BDF8000088473C
:105B100008BD08B54D484069007900F0800088B1A3
:105B20004A484069C07800F0800058B14848406950
:105B300018B14748416968468847BDF800004349A5
:105B40004969C87141484069007900F0200088B176
:105B50003E484069C07800F0200058B13B48406999
:105B6000C07900903848406920B137484169BDF894
:105B70000000884708BD70B58CB004460D466DB373
:105B8000FDF7D1FEC6B28DF80060324810F824004F
:105B90008DF8010000208DF806000120ADF802000C
:105BA0000020ADF804000390059001200290002031
:105BB0008DF810008DF81800274850F82400089040
:105BC00000200A9007908DF824008DF82C0068467C
:105BD000FDF7E5FD214840F8246004E01F4951F835
:105BE0002400FDF7B7FE2A4601212046FFF76EFD8F
:105BF0000CB070BD70B504460E461546174911F835
:105C000024003146FDF789FF144911F82400294684
:105C1000FDF7B0FE114911F82400FDF7C1FE70BD7B
:105C200010B504460D4911F82400FDF79BFE10BD88
:105C300000F01F02012191404209920002F1E0228E
:105C4000C2F8001170470000FC01FF1F34920000F1
:105C5000E401FF1FA09200004401FF1F1402FF1F78
:105C600072B64CF220505349C8814DF62810C881B5
:105C700062B67047F8B5044669460220FDF702FA9D
:105C800040F2D316207810B1012806D102E026F0A8
:105C9000080603E046F0080600E000BF00BFFFF77B
:105CA000DFFF0098C0084FF47A71B0FBF1F0616833
:105CB00000FB01F5280C3F498880CD800098C00882
:105CC0004FF47A71B0FBF1F0A16800FB01F5280CEC
:105CD000384908814D814FF4E060C88246F00106E2
:105CE0000E80F8BD3EB5044600208DF800000194FA
